{
  "contractName": "Voting",
  "abi": [
    {
      "anonymous": false,
      "inputs": [
        {
          "indexed": false,
          "internalType": "uint256",
          "name": "id",
          "type": "uint256"
        }
      ],
      "name": "PollCreated",
      "type": "event"
    },
    {
      "anonymous": false,
      "inputs": [
        {
          "indexed": false,
          "internalType": "address",
          "name": "user",
          "type": "address"
        },
        {
          "indexed": true,
          "internalType": "uint256",
          "name": "topicId",
          "type": "uint256"
        },
        {
          "indexed": true,
          "internalType": "string",
          "name": "status",
          "type": "string"
        },
        {
          "indexed": false,
          "internalType": "uint256",
          "name": "expirationTime",
          "type": "uint256"
        }
      ],
      "name": "VotingRightsChanged",
      "type": "event"
    },
    {
      "inputs": [
        {
          "internalType": "uint256",
          "name": "",
          "type": "uint256"
        }
      ],
      "name": "topics",
      "outputs": [
        {
          "internalType": "string",
          "name": "name",
          "type": "string"
        },
        {
          "internalType": "address",
          "name": "creator",
          "type": "address"
        },
        {
          "internalType": "uint256",
          "name": "expirationTime",
          "type": "uint256"
        }
      ],
      "stateMutability": "view",
      "type": "function",
      "constant": true
    },
    {
      "inputs": [
        {
          "internalType": "string",
          "name": "name",
          "type": "string"
        },
        {
          "internalType": "uint256",
          "name": "expirationPeriod",
          "type": "uint256"
        },
        {
          "internalType": "string[]",
          "name": "_options",
          "type": "string[]"
        }
      ],
      "name": "createTopic",
      "outputs": [],
      "stateMutability": "nonpayable",
      "type": "function"
    },
    {
      "inputs": [
        {
          "internalType": "uint256",
          "name": "_id",
          "type": "uint256"
        },
        {
          "internalType": "string",
          "name": "option",
          "type": "string"
        }
      ],
      "name": "addOption",
      "outputs": [],
      "stateMutability": "nonpayable",
      "type": "function"
    },
    {
      "inputs": [
        {
          "internalType": "uint256",
          "name": "_topicIndex",
          "type": "uint256"
        }
      ],
      "name": "getOptions",
      "outputs": [
        {
          "internalType": "string[]",
          "name": "",
          "type": "string[]"
        }
      ],
      "stateMutability": "view",
      "type": "function",
      "constant": true
    },
    {
      "inputs": [
        {
          "internalType": "uint256",
          "name": "_id",
          "type": "uint256"
        }
      ],
      "name": "requestVotingRights",
      "outputs": [],
      "stateMutability": "nonpayable",
      "type": "function"
    },
    {
      "inputs": [
        {
          "internalType": "uint256",
          "name": "_id",
          "type": "uint256"
        },
        {
          "internalType": "uint256",
          "name": "_status",
          "type": "uint256"
        },
        {
          "internalType": "address",
          "name": "requestingAddress",
          "type": "address"
        }
      ],
      "name": "processVotingRequest",
      "outputs": [],
      "stateMutability": "nonpayable",
      "type": "function"
    },
    {
      "inputs": [
        {
          "internalType": "uint256",
          "name": "_id",
          "type": "uint256"
        },
        {
          "internalType": "uint256",
          "name": "optionIndex",
          "type": "uint256"
        }
      ],
      "name": "vote",
      "outputs": [],
      "stateMutability": "nonpayable",
      "type": "function"
    },
    {
      "inputs": [
        {
          "internalType": "uint256",
          "name": "_id",
          "type": "uint256"
        }
      ],
      "name": "getVoteCounts",
      "outputs": [
        {
          "internalType": "uint256[]",
          "name": "",
          "type": "uint256[]"
        }
      ],
      "stateMutability": "view",
      "type": "function",
      "constant": true
    },
    {
      "inputs": [
        {
          "internalType": "uint256",
          "name": "_topicIndex",
          "type": "uint256"
        },
        {
          "internalType": "address",
          "name": "_user",
          "type": "address"
        }
      ],
      "name": "isAllowedVoter",
      "outputs": [
        {
          "internalType": "bool",
          "name": "",
          "type": "bool"
        }
      ],
      "stateMutability": "view",
      "type": "function",
      "constant": true
    },
    {
      "inputs": [
        {
          "internalType": "uint256",
          "name": "_topicIndex",
          "type": "uint256"
        },
        {
          "internalType": "address",
          "name": "_user",
          "type": "address"
        }
      ],
      "name": "hasAlreadyVoted",
      "outputs": [
        {
          "internalType": "bool",
          "name": "",
          "type": "bool"
        }
      ],
      "stateMutability": "view",
      "type": "function",
      "constant": true
    },
    {
      "inputs": [
        {
          "internalType": "uint256",
          "name": "_topicIndex",
          "type": "uint256"
        },
        {
          "internalType": "address",
          "name": "_user",
          "type": "address"
        }
      ],
      "name": "requestedVoting",
      "outputs": [
        {
          "internalType": "bool",
          "name": "",
          "type": "bool"
        }
      ],
      "stateMutability": "view",
      "type": "function",
      "constant": true
    }
  ],
  "bytecode": "0x608060405234801561001057600080fd5b50612334806100206000396000f3fe608060405234801561001057600080fd5b50600436106100a95760003560e01c80638a241f4c116100715780638a241f4c14610178578063a25236fe146101a8578063b384abef146101c4578063c14bfd29146101e0578063e26711e014610210578063ea57d5d414610240576100a9565b806318d9adab146100ae5780631e9eb1bc146100e057806351845af5146100fc5780637fb17926146101185780638915b3fb14610148575b600080fd5b6100c860048036038101906100c391906112b9565b61025c565b6040516100d7939291906113cf565b60405180910390f35b6100fa60048036038101906100f59190611628565b61033e565b005b610116600480360381019061011191906116df565b610514565b005b610132600480360381019061012d9190611732565b6107f3565b60405161013f919061178d565b60405180910390f35b610162600480360381019061015d91906112b9565b61086c565b60405161016f91906118b4565b60405180910390f35b610192600480360381019061018d91906112b9565b61096a565b60405161019f9190611994565b60405180910390f35b6101c260048036038101906101bd91906112b9565b6109e7565b005b6101de60048036038101906101d991906119b6565b610bf5565b005b6101fa60048036038101906101f59190611732565b610e91565b604051610207919061178d565b60405180910390f35b61022a60048036038101906102259190611732565b610f0a565b604051610237919061178d565b60405180910390f35b61025a600480360381019061025591906119f6565b610f83565b005b6000818154811061026c57600080fd5b906000526020600020906008020160009150905080600001805461028f90611a81565b80601f01602080910402602001604051908101604052809291908181526020018280546102bb90611a81565b80156103085780601f106102dd57610100808354040283529160200191610308565b820191906000526020600020905b8154815290600101906020018083116102eb57829003601f168201915b5050505050908060010160009054906101000a900473ffffffffffffffffffffffffffffffffffffffff16908060020154905083565b60008390506000815111610387576040517f08c379a000000000000000000000000000000000000000000000000000000000815260040161037e90611afe565b60405180910390fd5b600083116103ca576040517f08c379a00000000000000000000000000000000000000000000000000000000081526004016103c190611b6a565b60405180910390fd5b6000806001816001815401808255809150500390600052602060002090600802019050848160000190816103fe9190611d36565b50338160010160006101000a81548173ffffffffffffffffffffffffffffffffffffffff021916908373ffffffffffffffffffffffffffffffffffffffff160217905550834261044e9190611e37565b81600201819055508281600601908051906020019061046e929190611148565b50825167ffffffffffffffff81111561048a57610489611417565b5b6040519080825280602002602001820160405280156104b85781602001602082028036833780820191505090505b508160070190805190602001906104d09291906111a1565b507fab0309b6731a34e8750174d3c2c9591a34a2bf0c1425a30b34122be08d0507396000805490506040516105059190611e8d565b60405180910390a15050505050565b823373ffffffffffffffffffffffffffffffffffffffff16600082815481106105405761053f611ea8565b5b906000526020600020906008020160010160009054906101000a900473ffffffffffffffffffffffffffffffffffffffff1673ffffffffffffffffffffffffffffffffffffffff16146105c8576040517f08c379a00000000000000000000000000000000000000000000000000000000081526004016105bf90611f23565b60405180910390fd5b60001515600085815481106105e0576105df611ea8565b5b906000526020600020906008020160040160008473ffffffffffffffffffffffffffffffffffffffff1673ffffffffffffffffffffffffffffffffffffffff16815260200190815260200160002060009054906101000a900460ff1615151461067e576040517f08c379a000000000000000000000000000000000000000000000000000000000815260040161067590611f8f565b60405180910390fd5b600183036107795760016000858154811061069c5761069b611ea8565b5b906000526020600020906008020160040160008473ffffffffffffffffffffffffffffffffffffffff1673ffffffffffffffffffffffffffffffffffffffff16815260200190815260200160002060006101000a81548160ff02191690831515021790555060405161070d90612006565b6040518091039020847f1937e8671c1baa3cbb93306c5e47c4e5c6d6e1fd1b988ea784639d17dda786ee846000888154811061074c5761074b611ea8565b5b90600052602060002090600802016002015460405161076c92919061201b565b60405180910390a36107ed565b60405161078590612090565b6040518091039020847f1937e8671c1baa3cbb93306c5e47c4e5c6d6e1fd1b988ea784639d17dda786ee84600088815481106107c4576107c3611ea8565b5b9060005260206000209060080201600201546040516107e492919061201b565b60405180910390a35b50505050565b600080838154811061080857610807611ea8565b5b906000526020600020906008020160030160008373ffffffffffffffffffffffffffffffffffffffff1673ffffffffffffffffffffffffffffffffffffffff16815260200190815260200160002060009054906101000a900460ff16905092915050565b60606000828154811061088257610881611ea8565b5b9060005260206000209060080201600601805480602002602001604051908101604052809291908181526020016000905b8282101561095f5783829060005260206000200180546108d290611a81565b80601f01602080910402602001604051908101604052809291908181526020018280546108fe90611a81565b801561094b5780601f106109205761010080835404028352916020019161094b565b820191906000526020600020905b81548152906001019060200180831161092e57829003601f168201915b5050505050815260200190600101906108b3565b505050509050919050565b6060600082815481106109805761097f611ea8565b5b90600052602060002090600802016007018054806020026020016040519081016040528092919081815260200182805480156109db57602002820191906000526020600020905b8154815260200190600101908083116109c7575b50505050509050919050565b42600082815481106109fc576109fb611ea8565b5b90600052602060002090600802016002015411610a4e576040517f08c379a0000000000000000000000000000000000000000000000000000000008152600401610a45906120f1565b60405180910390fd5b6000151560008281548110610a6657610a65611ea8565b5b906000526020600020906008020160040160003373ffffffffffffffffffffffffffffffffffffffff1673ffffffffffffffffffffffffffffffffffffffff16815260200190815260200160002060009054906101000a900460ff16151514610b04576040517f08c379a0000000000000000000000000000000000000000000000000000000008152600401610afb9061215d565b60405180910390fd5b600160008281548110610b1a57610b19611ea8565b5b906000526020600020906008020160030160003373ffffffffffffffffffffffffffffffffffffffff1673ffffffffffffffffffffffffffffffffffffffff16815260200190815260200160002060006101000a81548160ff021916908315150217905550604051610b8b906121c9565b6040518091039020817f1937e8671c1baa3cbb93306c5e47c4e5c6d6e1fd1b988ea784639d17dda786ee3360008581548110610bca57610bc9611ea8565b5b906000526020600020906008020160020154604051610bea92919061201b565b60405180910390a350565b4260008381548110610c0a57610c09611ea8565b5b90600052602060002090600802016002015411610c5c576040517f08c379a0000000000000000000000000000000000000000000000000000000008152600401610c53906120f1565b60405180910390fd5b60008281548110610c7057610c6f611ea8565b5b906000526020600020906008020160040160003373ffffffffffffffffffffffffffffffffffffffff1673ffffffffffffffffffffffffffffffffffffffff16815260200190815260200160002060009054906101000a900460ff16610d0b576040517f08c379a0000000000000000000000000000000000000000000000000000000008152600401610d029061222a565b60405180910390fd5b60008281548110610d1f57610d1e611ea8565b5b906000526020600020906008020160050160003373ffffffffffffffffffffffffffffffffffffffff1673ffffffffffffffffffffffffffffffffffffffff16815260200190815260200160002060009054906101000a900460ff1615610dbb576040517f08c379a0000000000000000000000000000000000000000000000000000000008152600401610db290612296565b60405180910390fd5b60008281548110610dcf57610dce611ea8565b5b90600052602060002090600802016007018181548110610df257610df1611ea8565b5b906000526020600020016000815480929190610e0d906122b6565b9190505550600160008381548110610e2857610e27611ea8565b5b906000526020600020906008020160050160003373ffffffffffffffffffffffffffffffffffffffff1673ffffffffffffffffffffffffffffffffffffffff16815260200190815260200160002060006101000a81548160ff0219169083151502179055505050565b6000808381548110610ea657610ea5611ea8565b5b906000526020600020906008020160050160008373ffffffffffffffffffffffffffffffffffffffff1673ffffffffffffffffffffffffffffffffffffffff16815260200190815260200160002060009054906101000a900460ff16905092915050565b6000808381548110610f1f57610f1e611ea8565b5b906000526020600020906008020160040160008373ffffffffffffffffffffffffffffffffffffffff1673ffffffffffffffffffffffffffffffffffffffff16815260200190815260200160002060009054906101000a900460ff16905092915050565b813373ffffffffffffffffffffffffffffffffffffffff1660008281548110610faf57610fae611ea8565b5b906000526020600020906008020160010160009054906101000a900473ffffffffffffffffffffffffffffffffffffffff1673ffffffffffffffffffffffffffffffffffffffff1614611037576040517f08c379a000000000000000000000000000000000000000000000000000000000815260040161102e90611f23565b60405180910390fd5b426000848154811061104c5761104b611ea8565b5b9060005260206000209060080201600201541161109e576040517f08c379a0000000000000000000000000000000000000000000000000000000008152600401611095906120f1565b60405180910390fd5b600083815481106110b2576110b1611ea8565b5b9060005260206000209060080201600601829080600181540180825580915050600190039060005260206000200160009091909190915090816110f59190611d36565b506000838154811061110a57611109611ea8565b5b906000526020600020906008020160070160009080600181540180825580915050600190039060005260206000200160009091909190915055505050565b828054828255906000526020600020908101928215611190579160200282015b8281111561118f57825182908161117f9190611d36565b5091602001919060010190611168565b5b50905061119d91906111ee565b5090565b8280548282559060005260206000209081019282156111dd579160200282015b828111156111dc5782518255916020019190600101906111c1565b5b5090506111ea9190611212565b5090565b5b8082111561120e5760008181611205919061122f565b506001016111ef565b5090565b5b8082111561122b576000816000905550600101611213565b5090565b50805461123b90611a81565b6000825580601f1061124d575061126c565b601f01602090049060005260206000209081019061126b9190611212565b5b50565b6000604051905090565b600080fd5b600080fd5b6000819050919050565b61129681611283565b81146112a157600080fd5b50565b6000813590506112b38161128d565b92915050565b6000602082840312156112cf576112ce611279565b5b60006112dd848285016112a4565b91505092915050565b600081519050919050565b600082825260208201905092915050565b60005b83811015611320578082015181840152602081019050611305565b8381111561132f576000848401525b50505050565b6000601f19601f8301169050919050565b6000611351826112e6565b61135b81856112f1565b935061136b818560208601611302565b61137481611335565b840191505092915050565b600073ffffffffffffffffffffffffffffffffffffffff82169050919050565b60006113aa8261137f565b9050919050565b6113ba8161139f565b82525050565b6113c981611283565b82525050565b600060608201905081810360008301526113e98186611346565b90506113f860208301856113b1565b61140560408301846113c0565b949350505050565b600080fd5b600080fd5b7f4e487b7100000000000000000000000000000000000000000000000000000000600052604160045260246000fd5b61144f82611335565b810181811067ffffffffffffffff8211171561146e5761146d611417565b5b80604052505050565b600061148161126f565b905061148d8282611446565b919050565b600067ffffffffffffffff8211156114ad576114ac611417565b5b6114b682611335565b9050602081019050919050565b82818337600083830152505050565b60006114e56114e084611492565b611477565b90508281526020810184848401111561150157611500611412565b5b61150c8482856114c3565b509392505050565b600082601f8301126115295761152861140d565b5b81356115398482602086016114d2565b91505092915050565b600067ffffffffffffffff82111561155d5761155c611417565b5b602082029050602081019050919050565b600080fd5b600061158661158184611542565b611477565b905080838252602082019050602084028301858111156115a9576115a861156e565b5b835b818110156115f057803567ffffffffffffffff8111156115ce576115cd61140d565b5b8086016115db8982611514565b855260208501945050506020810190506115ab565b5050509392505050565b600082601f83011261160f5761160e61140d565b5b813561161f848260208601611573565b91505092915050565b60008060006060848603121561164157611640611279565b5b600084013567ffffffffffffffff81111561165f5761165e61127e565b5b61166b86828701611514565b935050602061167c868287016112a4565b925050604084013567ffffffffffffffff81111561169d5761169c61127e565b5b6116a9868287016115fa565b9150509250925092565b6116bc8161139f565b81146116c757600080fd5b50565b6000813590506116d9816116b3565b92915050565b6000806000606084860312156116f8576116f7611279565b5b6000611706868287016112a4565b9350506020611717868287016112a4565b9250506040611728868287016116ca565b9150509250925092565b6000806040838503121561174957611748611279565b5b6000611757858286016112a4565b9250506020611768858286016116ca565b9150509250929050565b60008115159050919050565b61178781611772565b82525050565b60006020820190506117a2600083018461177e565b92915050565b600081519050919050565b600082825260208201905092915050565b6000819050602082019050919050565b600082825260208201905092915050565b60006117f0826112e6565b6117fa81856117d4565b935061180a818560208601611302565b61181381611335565b840191505092915050565b600061182a83836117e5565b905092915050565b6000602082019050919050565b600061184a826117a8565b61185481856117b3565b935083602082028501611866856117c4565b8060005b858110156118a25784840389528151611883858261181e565b945061188e83611832565b925060208a0199505060018101905061186a565b50829750879550505050505092915050565b600060208201905081810360008301526118ce818461183f565b905092915050565b600081519050919050565b600082825260208201905092915050565b6000819050602082019050919050565b61190b81611283565b82525050565b600061191d8383611902565b60208301905092915050565b6000602082019050919050565b6000611941826118d6565b61194b81856118e1565b9350611956836118f2565b8060005b8381101561198757815161196e8882611911565b975061197983611929565b92505060018101905061195a565b5085935050505092915050565b600060208201905081810360008301526119ae8184611936565b905092915050565b600080604083850312156119cd576119cc611279565b5b60006119db858286016112a4565b92505060206119ec858286016112a4565b9150509250929050565b60008060408385031215611a0d57611a0c611279565b5b6000611a1b858286016112a4565b925050602083013567ffffffffffffffff811115611a3c57611a3b61127e565b5b611a4885828601611514565b9150509250929050565b7f4e487b7100000000000000000000000000000000000000000000000000000000600052602260045260246000fd5b60006002820490506001821680611a9957607f821691505b602082108103611aac57611aab611a52565b5b50919050565b7f656d70747920737472696e672070617373656400000000000000000000000000600082015250565b6000611ae86013836112f1565b9150611af382611ab2565b602082019050919050565b60006020820190508181036000830152611b1781611adb565b9050919050565b7f696e76616c6964206475726174696f6e00000000000000000000000000000000600082015250565b6000611b546010836112f1565b9150611b5f82611b1e565b602082019050919050565b60006020820190508181036000830152611b8381611b47565b9050919050565b60008190508160005260206000209050919050565b60006020601f8301049050919050565b600082821b905092915050565b600060088302611bec7fffffffffffffffffffffffffffffffffffffffffffffffffffffffffffffffff82611baf565b611bf68683611baf565b95508019841693508086168417925050509392505050565b6000819050919050565b6000611c33611c2e611c2984611283565b611c0e565b611283565b9050919050565b6000819050919050565b611c4d83611c18565b611c61611c5982611c3a565b848454611bbc565b825550505050565b600090565b611c76611c69565b611c81818484611c44565b505050565b5b81811015611ca557611c9a600082611c6e565b600181019050611c87565b5050565b601f821115611cea57611cbb81611b8a565b611cc484611b9f565b81016020851015611cd3578190505b611ce7611cdf85611b9f565b830182611c86565b50505b505050565b600082821c905092915050565b6000611d0d60001984600802611cef565b1980831691505092915050565b6000611d268383611cfc565b9150826002028217905092915050565b611d3f826112e6565b67ffffffffffffffff811115611d5857611d57611417565b5b611d628254611a81565b611d6d828285611ca9565b600060209050601f831160018114611da05760008415611d8e578287015190505b611d988582611d1a565b865550611e00565b601f198416611dae86611b8a565b60005b82811015611dd657848901518255600182019150602085019450602081019050611db1565b86831015611df35784890151611def601f891682611cfc565b8355505b6001600288020188555050505b505050505050565b7f4e487b7100000000000000000000000000000000000000000000000000000000600052601160045260246000fd5b6000611e4282611283565b9150611e4d83611283565b9250827fffffffffffffffffffffffffffffffffffffffffffffffffffffffffffffffff03821115611e8257611e81611e08565b5b828201905092915050565b6000602082019050611ea260008301846113c0565b92915050565b7f4e487b7100000000000000000000000000000000000000000000000000000000600052603260045260246000fd5b7f6e6f74207468652063726561746f720000000000000000000000000000000000600082015250565b6000611f0d600f836112f1565b9150611f1882611ed7565b602082019050919050565b60006020820190508181036000830152611f3c81611f00565b9050919050565b7f566f74696e672072696768747320616c726561647920617070726f7665640000600082015250565b6000611f79601e836112f1565b9150611f8482611f43565b602082019050919050565b60006020820190508181036000830152611fa881611f6c565b9050919050565b600081905092915050565b7f415050524f564544000000000000000000000000000000000000000000000000600082015250565b6000611ff0600883611faf565b9150611ffb82611fba565b600882019050919050565b600061201182611fe3565b9150819050919050565b600060408201905061203060008301856113b1565b61203d60208301846113c0565b9392505050565b7f52454a4543544544000000000000000000000000000000000000000000000000600082015250565b600061207a600883611faf565b915061208582612044565b600882019050919050565b600061209b8261206d565b9150819050919050565b7f566f74696e672068617320616c72656164792065787069726564000000000000600082015250565b60006120db601a836112f1565b91506120e6826120a5565b602082019050919050565b6000602082019050818103600083015261210a816120ce565b9050919050565b7f596f7520616c7265616479206861766520766f74696e67207269676874730000600082015250565b6000612147601e836112f1565b915061215282612111565b602082019050919050565b600060208201905081810360008301526121768161213a565b9050919050565b7f50454e44494e4700000000000000000000000000000000000000000000000000600082015250565b60006121b3600783611faf565b91506121be8261217d565b600782019050919050565b60006121d4826121a6565b9150819050919050565b7f596f7520646f6e2774206861766520766f74696e672072696768747300000000600082015250565b6000612214601c836112f1565b915061221f826121de565b602082019050919050565b6000602082019050818103600083015261224381612207565b9050919050565b7f596f75206861766520616c726561647920766f74656400000000000000000000600082015250565b60006122806016836112f1565b915061228b8261224a565b602082019050919050565b600060208201905081810360008301526122af81612273565b9050919050565b60006122c182611283565b91507fffffffffffffffffffffffffffffffffffffffffffffffffffffffffffffffff82036122f3576122f2611e08565b5b60018201905091905056fea2646970667358221220a34cd941bfe16a5ba49f5f29442774cd80e5cfe14671fc73694e68ad9e52b1a164736f6c634300080f0033",
  "immutableReferences": {},
  "source": "// SPDX-License-Identifier: GPL-3.0\r\n\r\npragma solidity ^0.8.0;\r\n\r\ncontract Voting {\r\n    event PollCreated(uint256 id);\r\n    event VotingRightsChanged(address user, uint256 indexed topicId, string indexed status , uint256 expirationTime);\r\n\r\n    struct Topic {\r\n        string name;\r\n        address creator;\r\n        uint256 expirationTime;\r\n        mapping(address => bool) requested;\r\n        mapping(address => bool) allowedVoters;\r\n        mapping(address => bool) voted;\r\n        // mapping(uint256 => uint256) voteCounts;\r\n        string[] options;\r\n        // address[] votingRequests;\r\n        uint256[] voteCounts;\r\n    }\r\n\r\n    // mapping (string => Topic) public topics;\r\n    Topic[] public topics;\r\n\r\n    modifier onlyCreator(uint256 _id) {\r\n        require(topics[_id].creator == msg.sender, \"not the creator\");\r\n        _;\r\n    }\r\n\r\n    // user creates any topic with name, options and expiry date\r\n    function createTopic(\r\n        string memory name,\r\n        uint256 expirationPeriod,\r\n        string[] memory _options\r\n    ) public {\r\n        // name can't be a empty string\r\n        bytes memory nameEmptyStringTest = bytes(name);\r\n        require(nameEmptyStringTest.length > 0, \"empty string passed\");\r\n        require(expirationPeriod > 0, \"invalid duration\");\r\n        Topic storage newTopic = topics.push();\r\n        newTopic.name = name;\r\n        newTopic.creator = msg.sender;\r\n        newTopic.expirationTime = block.timestamp + expirationPeriod;\r\n        newTopic.options = _options;\r\n        newTopic.voteCounts = new uint[](_options.length);\r\n        emit PollCreated(topics.length);\r\n    }\r\n\r\n    // user adds option\r\n    function addOption(uint256 _id, string memory option)\r\n        public\r\n        onlyCreator(_id)\r\n    {\r\n        require(\r\n            topics[_id].expirationTime > block.timestamp,\r\n            \"Voting has already expired\"\r\n        );\r\n        topics[_id].options.push(option);\r\n        topics[_id].voteCounts.push(0);\r\n    }\r\n\r\n    // returns all the options for any poll topic\r\n    function getOptions(uint256 _topicIndex)\r\n        public\r\n        view\r\n        returns (string[] memory)\r\n    {\r\n        return topics[_topicIndex].options;\r\n    }\r\n\r\n    // user requests to vote for any topic using topicId\r\n    function requestVotingRights(uint256 _id) public {\r\n        require(\r\n            topics[_id].expirationTime > block.timestamp,\r\n            \"Voting has already expired\"\r\n        );\r\n        require(\r\n            topics[_id].allowedVoters[msg.sender] == false,\r\n            \"You already have voting rights\"\r\n        );\r\n        // topics[_id].votingRequests.push(msg.sender);\r\n        topics[_id].requested[msg.sender] = true;\r\n        emit VotingRightsChanged(msg.sender, _id , \"PENDING\", topics[_id].expirationTime);\r\n    }\r\n\r\n    // creator of topic gets the all the voting requests\r\n    // function getVotingRequests(uint256 _topicIndex)\r\n    //     public\r\n    //     view\r\n    //     onlyCreator(_topicIndex)\r\n    //     returns (address[] memory)\r\n    // {\r\n    //     return topics[_topicIndex].votingRequests;\r\n    // }\r\n\r\n    // creator of the poll topic approves or rejects the voting requests\r\n    function processVotingRequest(uint256 _id, uint256 _status, address requestingAddress)\r\n        public\r\n        onlyCreator(_id)\r\n    {\r\n        // require(topics[_id].votingRequests.length > 0, \"no pending request\");\r\n        // address _address = topics[_id].votingRequests[0];\r\n        require(\r\n            topics[_id].allowedVoters[requestingAddress] == false,\r\n            \"Voting rights already approved\"\r\n        );\r\n        // status = 1 : approved\r\n        // else rejected\r\n        if (_status == 1) {\r\n            topics[_id].allowedVoters[requestingAddress] = true;\r\n            emit VotingRightsChanged( requestingAddress , _id , \"APPROVED\" , topics[_id].expirationTime);\r\n        }else{\r\n            emit VotingRightsChanged( requestingAddress , _id , \"REJECTED\" , topics[_id].expirationTime);\r\n        }\r\n    }\r\n\r\n    // approved user who has voted can vote before the expiry time\r\n    function vote(uint256 _id, uint256 optionIndex) public {\r\n        require(\r\n            topics[_id].expirationTime > block.timestamp,\r\n            \"Voting has already expired\"\r\n        );\r\n        require(\r\n            topics[_id].allowedVoters[msg.sender],\r\n            \"You don't have voting rights\"\r\n        );\r\n        require(!topics[_id].voted[msg.sender], \"You have already voted\");\r\n        topics[_id].voteCounts[optionIndex]++;\r\n        topics[_id].voted[msg.sender] = true;\r\n    }\r\n\r\n    // at the end of voting , user can see the voting count\r\n    function getVoteCounts(uint256 _id)\r\n        public\r\n        view\r\n        returns (uint256[] memory)\r\n    {\r\n        // require(\r\n        //     block.timestamp > topics[_id].expirationTime,\r\n        //     \"voting time not over yet\"\r\n        // );\r\n        return topics[_id].voteCounts;\r\n    }\r\n\r\n    // check if a user allowed to vote for a given topic\r\n    function isAllowedVoter(uint256 _topicIndex, address _user)\r\n        public\r\n        view\r\n        returns (bool)\r\n    {\r\n        return topics[_topicIndex].allowedVoters[_user];\r\n    }\r\n\r\n    // chekc if a user has already voted\r\n    function hasAlreadyVoted(uint256 _topicIndex, address _user)\r\n        public\r\n        view\r\n        returns (bool)\r\n    {\r\n        return topics[_topicIndex].voted[_user];\r\n    }\r\n\r\n    // check if user has request for voting\r\n    function requestedVoting(uint256 _topicIndex, address _user)\r\n        public\r\n        view\r\n        returns (bool)\r\n    {\r\n        return topics[_topicIndex].requested[_user];\r\n    }\r\n}\r\n",
  "sourcePath": "D:\\dev\\voting_platform_assignment\\contracts\\voting.sol",
  "compiler": {
    "name": "solc",
    "version": "0.8.15+commit.e14f2714.Emscripten.clang"
  },
  "schemaVersion": "3.4.8",
  "updatedAt": "2023-02-11T05:49:52.849Z",
  "networkType": "ethereum",
  "devdoc": {
    "kind": "dev",
    "methods": {},
    "version": 1
  },
  "userdoc": {
    "kind": "user",
    "methods": {},
    "version": 1
  }
}